:0506C5001206CAD2A1DB
:0806CA007F017E02DEFEDFFA73
:0106D2002205
:0F06B600D2A01206C5C2A01206CAC2A10206CA6D
:0A06EA00C2A01206C5D2A00206CA83
:0205C100AD0784
:1005C300E4FBFAEDC4131313540124FF92A0ED25A9
:1005D300E0FD1206C5C2A11206CA0BBB08E5D2A0F4
:1005E3001206CAD2A130A00F0AEAD394C840F6C2B9
:0E05F300A11206CA7F0022C2A11206CA7F0111
:0106010022D6
:10065500E4FDFCD2A01206CAD2A11206CAEC25E01E
:10066500FCA2A0E43342041206CAC2A11206CA0DB6
:05067500BD08E5AF0423
:01067A00225D
:10069D00AC05A9071206B67FA01205C1AF01120560
:0906AD00C1AF041205C10206EA06
:02067B00AC07CA
:10067D001206B67FA01205C1AF041205C11206B64F
:0F068D007FA11205C1120655AD071206EAAF058F
:01069C00223B
:1006020057726974652064617461207375636365F0
:10061200737366756C6C79210A003F065B4F666DD9
:0C0622007D077F6F020101020101010051
:0B06DF00EF1FAC0670011E4C70F622ED
:1004E300E4FBFAEA7053EBB40800504D9004F6F8BD
:1004F30028287302050E02051202051A02051E02C0
:10050300052602052A020532020536C2A28002D25E
:10051300A2C2A3C2A48022C2A28002D2A2D2A3C238
:10052300A48016C2A28002D2A2C2A3D2A4800AC20D
:10053300A28002D2A2D2A3D2A4C374079B2408F838
:10054300E6F5807F647E001206DFE4F5800BBB00D6
:08055300010AEB64084A708BF9
:01055B00227D
:10055C00E4F52378247C00FD7BFF7A067926FE7F68
:10056C000812042FE4F522E5232522FF742425220A
:10057C00F8E6FD12069D7FE87E031206DF0522E5F4
:10058C0022C3940840E17BFF7A067902120065E4ED
:10059C00F522E5232522FF12067BEF90061C93FF24
:1005AC0074082522F8A6070522E522C3940840E228
:0505BC001204E380FBC6
:030000000206D322
:0C06D300787FE4F6D8FD75813F02055CDD
:10035F00E709F608DFFA8046E709F208DFFA803E80
:10036F0088828C83E709F0A3DFFA8032E309F6086D
:10037F00DFFA8078E309F208DFFA807088828C83D5
:10038F00E309F0A3DFFA806489828A83E0A3F60889
:10039F00DFFA805889828A83E0A3F208DFFA804C63
:1003AF0080D280FA80C680D4806980F2803380103A
:1003BF0080A680EA809A80A880DA80E280CA8033A3
:1003CF0089828A83ECFAE493A3C8C582C8CCC5831B
:1003DF00CCF0A3C8C582C8CCC583CCDFE9DEE780EB
:1003EF000D89828A83E493A3F608DFF9ECFAA9F06A
:1003FF00EDFB2289828A83ECFAE0A3C8C582C8CCC0
:10040F00C583CCF0A3C8C582C8CCC583CCDFEADED8
:10041F00E880DB89828A83E493A3F208DFF980CC3A
:10042F0088F0EF60010E4E60C388F0ED2402B40433
:10043F000050B9F582EB2402B4040050AF232345DA
:06044F0082239003AF734D
:10000300E53B242FF8E6053B22782C300702782FB6
:10001300E475F0011204AD0204552000EB7F2ED2EB
:10002300008018EF540F2490D43440D4FF30040BD5
:10003300EF24BFB41A0050032461FFE53C600215AE
:100043003C053FE53F7002053E30070D782CE47513
:10005300F0011204ADEF02049B02062E7403D207D3
:100063008003E4C207F53B8B2C8A2D892EE4F53CF3
:10007300F53EF53FE53C60077F2012003E80F575B5
:100083003DFFC201C200C202C203C205C206C208CA
:1000930012000CFF700D3007057F0012004FAF3FB9
:1000A300AE3E22B4255FC2D5C20412000CFF24D099
:1000B300B40A00501A75F00A783C30D50508B6FF2B
:1000C3000106C6A426F620D5047002D20380D924E3
:1000D300CFB41A00EF5004C2E5D20402024FD2019A
:1000E30080C6D20080C0D20280BCD2D580BAD205ED
:1000F30080B47F2012003E2002077401B53C00400B
:10010300F1120003FF12003E020077D208D20680EC
:1001130095120003FB120003FA120003F94A4B7015
:100123000679207A037BFF20022EE53C602A7E00BD
:100133008E8275830012046E60060EEE653D70F0CC
:10014300C2D5EBC0E0EAC0E0E9C0E0EE120296D00F
:10015300E0F9D0E0FAD0E0FB120455FF60AAEBC04F
:10016300E0EAC0E0E9C0E012003ED0E02401F9D0AB
:10017300E03400FAD0E0FBE53D0460DCD53DD980F6
:10018300877BFF7A027992D202809C791080027970
:1001930008C206C2088008D2D5790A8004790AC247
:1001A300D5E53D047002F53DE4FAFDFEFF120003C0
:1001B300FC7B08200113120003FD7B1030000A12A0
:1001C3000003FE120003FF7B20EC3382D592D5504F
:1001D30013C3E43000069FFFE49EFEE42001039D69
:1001E300FDE49CFCE4CBF8C201EC700CCFCECDCC8B
:1001F300E824F8F870F38017C3EF33FFEE33FEED16
:1002030033FDEC33FCEB33FB994002FB0FD8E9EBF6
:10021300300105F8D0E0C448B201C0E00AEC4D4E0D
:100223004F78207B0070C2EAB53D0040BCC0E012AD
:100233000298D0F0D0E0200104C4C0E0C4B201C0F1
:10024300F0120027D0F0D5F0EB0200771204BD01C5
:100253001453018E5800E54C00E14201924F019A7C
:0F02630044019A4900FA4301A0550184460184E1
:100272004501844703405000E92D00ED2E01102B6B
:1002820000F123010E2003292A00A94800000108D9
:100292003F3F3F00790AA2D5200314300509B91067
:1002A200020404B9080104A2D52006025001042068
:1002B20002689202B53C005034C0E07F203003193E
:1002C2007F30A20272067205500F1202EFC202C202
:1002D20006C205C2087F30800F300503E9C0E01274
:1002E200003E300503D0E0F9D0E0B53CCC30051734
:1002F2007F30B9100C12003E7F583004077F78809F
:1003020003B9080312003E3002057F2D02003E7F32
:10031200202008F87F2B2006F322920280CF286E3D
:10032200756C6C2900D2011200033001F8C2017809
:100332003C30D50108F60200A92D5043495812005D
:10034200032403B405004001E490033B9312002F01
:0D035200743A12002FD203753C0402018E94
:10045500BB010689828A83E0225002E722BBFE02A5
:09046500E32289828A83E49322D8
:10046E00BB010CE58229F582E5833AF583E0225043
:10047E0006E92582F8E622BBFE06E92582F8E2228D
:0D048E00E58229F582E5833AF583E49322A7
:10049B00BB010689828A83F0225002F722BBFE0140
:0204AB00F3223A
:1004AD00FAE6FB0808E6F925F0F618E6CA3AF62250
:1004BD00D083D082F8E4937012740193700DA3A3CE
:1004CD0093F8740193F5828883E4737402936860E2
:0604DD00EFA3A3A380DFE2
:10062E00EFB40A07740D120639740A309811A8999E
:10063E00B8130CC2983098FDA899C298B811F6302C
:07064E0099FDC299F5992204
:00000001FF
