:10055700C2A7C2A6C2A58F807F017E0012051DD249
:0B056700A77F057E0012051DC2A72221
:10057200C2A7D2A6C2A58F807F017E0012051DD21E
:0B058200A77F057E0012051DC2A72206
:10058D007F381205577F0C1205577F061205577FCE
:09059D00011205577F8002055789
:0505F800A5A5A5A5A5C5
:1004B300051C0000000000051700000000000223D7
:0604C30000000221000010
:10021500E4F508F509E52464194523706BF523F524
:10022500247F941205BFEF65227003EE65216058A7
:100235007508007509018E218F227C037DE8120166
:10024500348F1CAE21AF227C037DE8120134AA0451
:10025500AB057D647C00AF03AE021201348F1D7DBA
:10026500647C00AF03AE02120134AA04AB057D0A1B
:100275007C00AF03AE021201348F1E7D0A7C00AFF5
:1002850003AE021201348D1F0524E52470020523F7
:04029500AE08AF09F7
:010299002242
:10031B0078087C007D007BFF7A0579F87E007F05ED
:10032B001200D37B007A0079087516057F30120313
:10033B00EC7B007A00790D7516057F10120454E4DE
:10034B00FF740D2FF8E6B4A5040FBF05F4EF640599
:07035B0060037F01227F0017
:010362002278
:10029A0012058D1203A312031BEF6014C2957F147B
:1002AA007E0012051DD2957F147E0012051D80E680
:1002BA0012041E7B007A007917120363EF603D7FF8
:1002CA0080120557E51775F00A84E5F02430FF120D
:1002DA000572E51875F00A84E5F02430FF120572FC
:1002EA00E51975F00A84E5F02430FF120572E51A63
:1002FA0075F00A84E5F02430FF120572120215EF38
:10030A004E60AD1204857B007A00791C1205D880F4
:01031A009F43
:0E04C900052AE7E7E7E7E70525E7E7E7E7E7C6
:10051D00D3EF9400EE940040147D6E7C00ED1D70C1
:0D052D00011CED4C70F7EF1F70E61E80E31F
:01053A00229E
:1005A600E4FEEF3392A2EF25E0FFD2B6A2A0E43339
:0805B6004207C2B60EBE08EABE
:0105BE00221A
:1004FC007F2512050C7D077F2612050C7D0E7F20B3
:10050C00C2B71205A6AC07AF051205A6D2B7AF0449
:01051C0022BC
:0C05EB00C2B71205A6E4FF1205A6D2B7A5
:0105F70022E1
:060454008B138A148915C8
:10045A00C2B71205A6AD07E4FCECC395165017E423
:10046A00FF1205A6AB13AA14A9158C82758300EF97
:0A047A001201120C80E3D2B7AF05A7
:010484002255
:0B03E1007B007A0079257516057F2A45
:0603EC008B138A14891531
:1003F200C2B71205A6AD07E4FCECC395165018ABC4
:10040200130515E515AA147002051414F91200F962
:0B041200FF1205A60C80E2D2B7AF0578
:01041D0022BC
:1003A300C290D2B7C2B6C2907D0F7F2012050C7DDA
:1003B3003F7F2112050C7F2212050CE4FD1204FC81
:1003C3007D057F3112050C7B007A00792A751605AD
:0E03D3007F301203EC1203E1120508D29022D3
:060363008B088A09890ADB
:10036900E4FB7D0F7F2012050CD2907F0A7E0012DC
:10037900051D7F071205EB8F0BE50B30E612C290C6
:10038900AB08AA09A90A7516057F611204547B01F5
:09039900AD0B7F2712050CAF0328
:0103A2002238
:1005D800C2907516057FA01203ECD2907F0A7E00A8
:0305E80002051DEC
:10041E00C2901203E17D017F2112050C7F2212058D
:10042E000C7D287F2512050C7D057F3112050C7D74
:10043E00077F2612050C7D0F7F2012050CD2907FB0
:06044E000A7E0002051DFC
:10048500C2907B007A00792A7516057F301203EC3D
:100495001203E17D017F2112050C7F2212050C7DDF
:0E04A5001A7F2412050C7D281204FCD290222E
:10053B00C2B6E4FEEFC4131313540124FF92B4EFBD
:0B054B0025E0FFC2B6D2B60EBE08E9E4
:010556002282
:1004D800E4FFFEC2B6FDFCEF25E0FFEE33FED2B628
:1004E800C2B6A2B7E43342070DBD00010CED640C9F
:0304F8004C70E461
:0104FB0022DE
:1005BF00C2B6C2B512053B7F06DFFED2B60000C23F
:0805CF00B600001204D8D2B5F9
:0105D7002201
:0300000002018971
:0C018900787FE4F6D8FD75812E0201D0CD
:10000300E709F608DFFA8046E709F208DFFA803EDF
:1000130088828C83E709F0A3DFFA8032E309F608CC
:10002300DFFA8078E309F208DFFA807088828C8334
:10003300E309F0A3DFFA806489828A83E0A3F608E8
:10004300DFFA805889828A83E0A3F208DFFA804CC2
:1000530080D280FA80C680D4806980F28033801099
:1000630080A680EA809A80A880DA80E280CA803302
:1000730089828A83ECFAE493A3C8C582C8CCC5837A
:10008300CCF0A3C8C582C8CCC583CCDFE9DEE7804A
:100093000D89828A83E493A3F608DFF9ECFAA9F0C9
:1000A300EDFB2289828A83ECFAE0A3C8C582C8CC1F
:1000B300C583CCF0A3C8C582C8CCC583CCDFEADE38
:1000C300E880DB89828A83E493A3F208DFF980CC9A
:1000D30088F0EF60010E4E60C388F0ED2402B40493
:1000E3000050B9F582EB2402B4040050AF2323453A
:0600F3008223900053730C
:1000F900BB010689828A83E0225002E722BBFE0205
:09010900E32289828A83E4932237
:10011200F8BB010DE58229F582E5833AF583E8F023
:10012200225006E92582C8F622BBFE05E92582C8CF
:02013200F222B7
:10013400BC000BBE0029EF8DF084FFADF022E4CCAF
:10014400F875F008EF2FFFEE33FEEC33FCEE9DEC78
:10015400984005FCEE9DFE0FD5F0E9E4CEFD22EDBE
:10016400F8F5F0EE8420D21CFEADF075F008EF2F08
:10017400FFED33FD4007985006D5F0F222C398FDF9
:050184000FD5F0EA2296
:1001950002029AE493A3F8E493A34003F68001F2E4
:1001A50008DFF48029E493A3F85407240CC8C3336B
:1001B500C4540F4420C8834004F456800146F6DF3A
:1001C500E4800B01020408102040809004B3E47E13
:1001D500019360BCA3FF543F30E509541FFEE4932F
:1001E500A360010ECF54C025E060A840B8E493A3F6
:1001F500FAE493A3F8E493A3C8C582C8CAC583CA21
:10020500F0A3C8C582C8CAC583CADFE9DEE780BED8
:0104D7000024
:00000001FF
