:10023C00C2B6E4FEEFC4131313540124FF92B4EFBF
:0B024C0025E0FFC2B6D2B60EBE08E9E6
:010257002284
:10021800E4FFFEC2B6FDFCEF25E0FFEE33FED2B6EA
:10022800C2B6A2B7E43342070DBD00010CED640C61
:030238004C70E423
:01023B0022A0
:10025800C2B6C2B512023C7F06DFFED2B60000C2AB
:08026800B60000120218D2B525
:01027000226B
:0A0293003F065B4F666D7D077F6F2D
:04000300020E0029C0
:0B028800EF1FAC0670011E4C70F62248
:10000E00E5116419451060030200B3F510F5117F78
:10001E00941202588E0C8F0D7C037DE812014874E9
:10002E00932FF58274023EF583E493F512AE0CAF76
:10003E000D7C037DE8120148AA04AB057D647C00AB
:10004E00AF03AE0212014874932FF58274023EF58F
:10005E0083E493F5137D647C00AF03AE0212014876
:10006E00AA04AB057D0A7C00AF03AE0212014874F0
:10007E00932FF58274023EF583E493F5147D0A7C8A
:10008E0000AF03AE0212014874932DF58274023C48
:10009E00F583E493F515AC0EAD0FAE0CAF0D12015A
:0E00AE00488E0A8F0B0511E511700205102215
:10019D00E4FBFAEA7024EB14600E1460131460147F
:1001AD0024037016C2A28002D2A2C2A3C2A4800AE6
:1001BD00C2A28002D2A2D2A3C2A4C374039B2412F2
:1001CD00F8E6F5807F647E00120288E4F5800BBBB3
:0901DD0000010AEB64044A70BA47
:0101E60022F6
:03000B000201E708
:1001E700C0E0C0D00509E50970020508C39464E5BD
:1001F7000894004006750800750901D3E509950BB9
:10020700E508950A5004C2A08002D2A0D0D0D0E061
:0102170032B4
:10027100758902758CA0758AA0D28CD2A9D2AF12D1
:07028100000E12019D80F840
:030000000200BC3F
:0C00BC00787FE4F6D8FD7581190201037D
:10014800BC000BBE0029EF8DF084FFADF022E4CC9B
:10015800F875F008EF2FFFEE33FEEC33FCEE9DEC64
:10016800984005FCEE9DFE0FD5F0E9E4CEFD22EDAA
:10017800F8F5F0EE8420D21CFEADF075F008EF2FF4
:10018800FFED33FD4007985006D5F0F222C398FDE5
:050198000FD5F0EA2282
:1000C800020271E493A3F8E493A34003F68001F2DB
:1000D80008DFF48029E493A3F85407240CC8C33339
:1000E800C4540F4420C8834004F456800146F6DF08
:1000F800E4800B0102040810204080900003E47E95
:10010800019360BCA3FF543F30E509541FFEE493FC
:10011800A360010ECF54C025E060A840B8E493A3C3
:10012800FAE493A3F8E493A3C8C582C8CAC583CAEE
:10013800F0A3C8C582C8CAC583CADFE9DEE780BEA6
:0100070000F8
:00000001FF
