:0E02590081838587898B8D80828486888A8C3C
:0902720007100000120705061632
:1001EB00C2B500C2B600D2B500E4FEEF1392B4EF75
:1001FB00C313FFD2B600C2B6000EBE08EEE4FEED8E
:10020B001392B4EDC313FDD2B600C2B6000EBE08F6
:04021B00EEC2B5007A
:01021F0022BC
:1001A100C2B500C2B600D2B500E4FDEF1392B4EFC0
:1001B100C313FFD2B600C2B6000DBD08EE00E4FDC8
:1001C100A2B4E433FFC43333335480FCEEC3134C85
:1001D100FED2B600C2B6000DBD08E5C2B500D2B66A
:0901E10000C2B400D2B400AF0664
:0101EA0022F2
:10022000E4FD7F8E1201EBE4FCEC90026093FF741E
:10023000102CF8E6FD1201EB0CBC07ED7D807F8EE3
:030240000201EBCD
:10024300E4FBEB90025993FF1201A174102BF8A663
:05025300070BBB07EDE5
:010258002283
:0A027C003F065B4F666D7D077F6F44
:0B026700EF1FAC0670011E4C70F62269
:10012800E4FBFAEA7053EBB40800504D90013BF839
:1001380028287302015302015702015F020163027A
:10014800016B02016F02017702017BC2A28002D219
:10015800A2C2A3C2A48022C2A28002D2A2D2A3C2F7
:10016800A48016C2A28002D2A2C2A3D2A4800AC2CC
:10017800A28002D2A2D2A3D2A4C374079B2408F8F7
:10018800E6F5807F647E00120267E4F5800BBB0011
:08019800010AEB64084A708BB8
:0101A000223C
:10000300E4F517F51812022012024320B007E4F5B5
:1000130017F518800920B106751700751801E51842
:1000230045177038E512C4540F90027C93F508E528
:1000330012540F93F509E4F50AE511540F93F50BE8
:10004300E511C4540F93F50CE4F50DE510C4540FFA
:1000530093F50EE510540F93F50F803790027EE46D
:1000630093F50890027CE493F509E516C4540F93C5
:10007300F50AE516540F93FFF50BE514C4540F93DB
:10008300F50CE514540F93F50DE513C4540F93F5D4
:090093000E8F0F12012802000B70
:0300000002009C5F
:0C009C00787FE4F6D8FD7581180200E3BF
:1000A800020003E493A3F8E493A34003F68001F26B
:1000B80008DFF48029E493A3F85407240CC8C33359
:1000C800C4540F4420C8834004F456800146F6DF28
:1000D800E4800B0102040810204080900272E47E44
:1000E800019360BCA3FF543F30E509541FFEE4931D
:1000F800A360010ECF54C025E060A840B8E493A3E4
:10010800FAE493A3F8E493A3C8C582C8CAC583CA0E
:10011800F0A3C8C582C8CAC583CADFE9DEE780BEC6
:01027B000082
:00000001FF
