:10052B00C2A58F807F017E0012053CD2A77F057E7E
:01053B0000BF
:10053C00D3EF9400EE9400400F7DC77C01DCFEDD10
:08054C00FAEF1F70EB1E80E8BE
:010554002284
:0A061A00C2A7C2A612052BC2A72238
:0A062400C2A7D2A612052BC2A7221E
:1005B8007F3812061A7F0C12061A7F0612061A7F57
:0905C8000112061A7F8002061AD6
:0705550012057A7F017E0010
:10055C00D3EF9400EE940040147D6E7C00ED1D7082
:0D056C00011CED4C70F7EF1F70E61E80E3E0
:01057900225F
:0B060F00EF1FAC0670011E4C70F622BD
:10057A00C2B77B46AF031BEF70FAD2B7E4FB30B7C2
:10058A000D1205580BEBD3940540F37F00227F012F
:01059A00223E
:1004C800E4FBFAC2B70511E51170020510EF1392AB
:1004D800B7751000751106E5111511AC10700215ED
:1004E800104C70F3D2B7EFC313FF0BBB00010AEB3C
:0504F80064084A70CE0B
:0104FD0022DC
:10048A007D087C00C2B70FBF0000D2B70FBF0000C3
:10049A000FBF0000A2B7E433C43333335480FBE9FF
:1004AA00C3134BF97E007F04EF1FAA0670011E4A90
:0D04BA0070F6ED1D70011CED4C70C9AF0116
:0104C7002212
:1004FE001205557FCC1204C87F441204C81205E8B9
:10050E00EFF44E6017E4FBFAB2957F0A7E001206F6
:0C051E000F0BBB00010AEB640A4A70ECF2
:01052A0022AE
:0D05F6001205557FCC1204C87FBE0204C858
:1005D100E4FFFE1204FE1205F612048A8F0E1204C5
:0605E1008AEFFEE50EFFAB
:0105E70022F1
:10059B008E0E8F0F8D821205557FCC1204C87F4EA5
:0D05AB001204C8AF0F1204C8AF820204C8CA
:0E05E8001205557FEC1204C812048A7E002210
:04035900AB07AA063E
:10035D00C3EA648094805010750801EB1B70011A7C
:10036D006303FF6302FF8003E4F508AD03AC02EC09
:10037D001202068F118E108D0F8C0EE4FFFE7DC8BC
:10038D007C40AB11AA10A90FA80E1200FBE4FBFADA
:10039D00F9783F12000A12023FAA06AB077C277DAF
:1003AD0010AF03AE021202C08F097C277D10AF0380
:1003BD00AE021202C07E037FE8CFCDCFCECCCE12DF
:1003CD0002C08F0A7C037DE8AF03AE021202C07E2D
:1003DD00007F64CFCDCFCECCCE1202C08F0B7C0070
:1003ED007D64AF03AE021202C07E007F0ACFCDCF77
:1003FD00CECCCE1202C08F0CAE02AF037C007D0AB4
:05040D001202C08D0D7C
:0104120022C7
:100413001205B8E4FDFC7F1EFE12059B7F541206F5
:10042300247F651206247F6D1206247F7012062432
:100433007F3A1206247F8512061A1205D112035938
:10044300E50860057F2D120624E5092430FF120616
:1004530024E50A2430FF120624E50B2430FF12069C
:10046300247F2E120624E50C2430FF120624E50D0A
:100473002430FF1206247FDF1206247F4312062452
:070483007F2012062480AE69
:100003000202ABE86480F8E933E83360110460F07E
:10001300ED33EC337009E8FCE9FDEAFEEBFF220463
:1000230060DED3EB9FEA9EE99DE8C2E78CF0C2F75E
:1000330095F0400CE8CCF8E9CDF9EACEFAEBCFFB2A
:1000430012027685D0F05804700320D5B3E804700B
:10005300075002B2D50202B592D5EC0460F7E4CCA6
:10006300C0E0C398F8603B94186008400DD0E0FBF3
:1000730002028DE4FBFAC9FC8028E830E406E4C9F7
:10008300FBE4CAFCE830E305E4C9CACBFCE8540747
:100093006010F8C3E913F9EA13FAEB13FBEC13FC52
:1000A300D8F130F52FC3E49CFCEF9BFFEE9AFEEDF5
:1000B30099FDD0E0FBEF4E4D4C701222DB030202A0
:1000C300B2EC2CFCEF33FFEE33FEED33FDED30E706
:1000D300EB02028DEF2BFFEE3AFEED39FDD0E0FB94
:1000E30050130BBB00030202B5ED13FDEE13FEEF3D
:0800F30013FFEC13FC02028D67
:1000FB00EC4D6011E8497017ED33EC3304600DE4FF
:10010B00FCFFFEFD22E933E8330470F80202AB1268
:10011B00027658046009E4CC248150062850090269
:10012B0002B52840030202B2C0E0EB4A7044B9802A
:10013B0006D0E0FB0202A1EF4E701CBD8008EBFF66
:10014B00EAFEE9FD80EBE98DF0A4FEE5F00201E4A7
:10015B00E9CDF9EAFEEBFFEF89F0A4FCE5F0CE89DF
:10016B00F0A42EFFE435F0CD89F0A42DFEE435F09C
:10017B008067EF4E7005BD80D780C3EF8BF0A4ACCA
:10018B00F0EE8BF0A42CFCE435F0F8EF8AF0A42C05
:10019B00E5F038FCE433CB8DF0A42CFCE5F03BF818
:1001AB00EE8AF0A42CFCE5F038F8E433CF89F0A408
:1001BB002CFCE5F038CF3400CE89F0A42FFFE5F00E
:1001CB003EFEE433C98DF0A42EFEE5F039CD8AF066
:1001DB00A42FFFE5F03EFEE43DFD33D0E0FB5007DE
:1001EB000BBB000F0202B5EC2CFCEF33FFEE33FE22
:0601FB00ED33FD02028D50
:1002010075F020800E75F010800575F0087D007E78
:10021100007F003392D530D5031202F6EC33401043
:10022100EF33FFEE33FEED33FDEC33FCD5F0ED2281
:0E023100E5F0247EA2D513CC92E7CDCEFF22BD
:10023F00EDD2E7CD33EC3392D524814006E4FFFEB7
:10024F00FDFC22FCE4CFCECDCC24E0501174FF8016
:10025F00EDC3CC13CCCD13CDCE13CECF13CF0470B3
:07026F00F030D5DE0202F6BB
:10027600E9D2E7C933E833F892D5EDD2E7CD33ECCE
:0702860033FC5002B2D52247
:10028D00EC30E7100FBF000C0EBE00080DBD0004D2
:10029D000BEB6014A2D5EB13FCED92E7FD2274FF7E
:1002AD00FCFDFEFF22E480F8A2D574FF13FC7D80D7
:0302BD00E480EFEB
:03000000020603F2
:0C060300787FE4F6D8FD75811102041325
:1002C000C2D5EC30E709B2D5E4C39DFDE49CFCEE59
:1002D00030E715B2D5E4C39FFFE49EFE120304C3CA
:1002E000E49DFDE49CFC800312030430D507C3E4C5
:0602F0009FFFE49EFE22C8
:0E02F600C3E49FFFE49EFEE49DFDE49CFC2219
:10030400BC000BBE0029EF8DF084FFADF022E4CCDD
:10031400F875F008EF2FFFEE33FEEC33FCEE9DECA6
:10032400984005FCEE9DFE0FD5F0E9E4CEFD22EDEC
:10033400F8F5F0EE8420D21CFEADF075F008EF2F36
:10034400FFED33FD4007985006D5F0F222C398FD27
:050354000FD5F0EA22C4
:00000001FF
